:060000000C94A1000C9419
:1000060000000C9400000C9400000C9400000C946A
:1000160000000C9400000C9400000C9400000C945A
:1000260000000C9400000C9400000C9400000C944A
:1000360000000C9400000C9400000C9400000C943A
:1000460000000C9400000C9400000C940000102793
:10005600E80364000A00010000100001100001001E
:10006600313338324C6F636B2061667465722025BC
:100076006420736563005072657373202320746F68
:10008600206C6F636B004C6F636B656420210044CA
:100096006F6F72204F70656E6564210052657365DF
:1000A600742050617373204D6F6465004F6C64203B
:1000B60050617373776F72643A00436F727265634F
:1000C600742050617373776F72642100456E746596
:1000D60072204E6577205061737300506173737799
:1000E6006F7264204368616E6765640057726F6E55
:1000F600672050617373776F72642100456E746573
:10010600722050617373776F72643A0033205469BA
:100116006D65732057726F6E672100576169742091
:100126002564205365636F6E6473000080C004000D
:10013600800266000200950232010000F894EE2764
:10014600ECBBF1E0FBBFEBBFE5BF8DE0A2E0BB2758
:10015600ED938A95E9F780E098E0A0E6ED930197A4
:10016600E9F7E4E3F1E085919591009761F0A591B7
:10017600B59105901590BF01F00105900D9201977C
:10018600E1F7FB01F0CFEFE5EDBFE8E0EEBFC0E63B
:10019600D2E00C942502BA93AA93E0E0E093910290
:1001A600E0939202EEEF0E946205B49903C0E1E388
:1001B6000C94F904B59903C0E2E30C94F904B699DA
:1001C60003C0E3E30C94F904EDEF0E946205B499D1
:1001D60003C0E4E30C94F904B59903C0E5E30C9479
:1001E600F904B69903C0E6E30C94F904EBEF0E9418
:1001F6006205B49903C0E7E30C94F904B59903C00A
:10020600E8E30C94F904B69903C0E9E30C94F90405
:10021600E7EF0E946205B4991EC0E881F981309724
:10022600B9F0B49915C0E0919102F091920231961D
:10023600E0939102F09392020E946705A0919102C9
:10024600B09192021A971CF0E2E70C94F904E9CFF8
:10025600EAE20C94F904B59903C0E0E30C94F904BE
:10026600B69903C0E3E20C94F9049CCF8824992440
:10027600E9E0F0E0E815F9054CF10E946B05EAE6C5
:10028600F0E00E9477050E948905ECE7F0E00E9405
:100296009305E7EFE8BB66247724CC24DD24E5E06C
:1002A600F0E06E167F065CF4B69903C0E1E0F0E07C
:1002B6006F010E946705F30131963F01F0CF0C2CC8
:1002C6000D2821F4F40131964F01D2CFE1E0E2BBD3
:1002D600839A0E949D0583980E946B05ECE8F0E0E6
:1002E6000E949305AAEFB0E00E94390608950E9485
:1002F6006B05E5E9F0E00E949305E2E0E2BB829A35
:100306000E949D05829808950E94A405E2EAF0E005
:100316000E949305882499240E94AA0544F4849A8D
:1003260084980E946705F40131964F01F5CF0E942B
:100336006B05E2EBF0E00E949305662477240E94A9
:10034600AF05D4F40E94B405B9F0E3E2E51559F41B
:10035600062C072869F00E94C0050E94CA05F30111
:1003660031973F0105C00E94D105E059FD4F5082EB
:10037600F30131963F01E3CF0E94DA0509F050C040
:10038600662477240E94AF0534F40E94EC05F3013D
:1003960031963F01F7CF0E946B05E0ECF0E00E943A
:1003A6009305A4EFB1E00E9439060E946B05E2EDC9
:1003B600F0E00E949305662477240E94AF05D4F4EA
:1003C6000E94B405B9F0E3E2E51559F4062C0728B6
:1003D60069F00E94C0050E94EC05F30131973F01C8
:1003E60005C00E94D105E058FD4F5082F3013196B9
:1003F6003F01E3CF0E94EC050E946B05E1EEF0E0C1
:100406000E949305882499240E94AA0544F4849A9C
:1004160084980E946705F40131964F01F5CF11C00B
:100426000E946B05E2EFF0E00E9493050E94F3053F
:100436000E94AA0534F40E94FA05F40131964F0190
:10044600F7CF0895EFEFEABBE0E0EBBBEFE0E7BBE9
:10045600E0E0E8BBE4BBE5BBEFE1E1BBE0E0E8BB25
:10046600E3BFE2BFECBFEFBDEEBDEDBDECBDE7BD4A
:10047600E6BDEBBDEABDE9BDE8BDE2BDE5BDE4BD57
:10048600E3BDE9BFE5BFE4BFEAB9E0E8E8B9E0E00B
:10049600E0BFE6B9EDB9E6BFA0E10E9433050E94D0
:1004A6006B05E2E0F1E00E949305662477240E9442
:1004B600AF050CF040C0062C072811F4A1E001C0DE
:1004C600A0E0B0E068DE5E2EA2E3B0E00E9439064E
:1004D600E2E7E515B1F418DF0E946B05E2E0F1E012
:1004E6000E949305662477240E94AF0534F40E9487
:1004F600CA05F30131963F01F7CFEFEFFFEF3F015A
:1005060016C0EAE2E515B9F0E3E2E51559F4062C62
:10051600072869F00E94C0050E94CA05F3013197B9
:100526003F0105C00E94D105E059FD4F5082F301FD
:1005360031963F01BCCF0E94DA0549F40E94A4051A
:10054600E0ECF0E00E949305D2DE90DE46C0E0913A
:100556009302F09194023196E0939302F093940201
:100566000E946B05E2EFF0E00E9493050E94F305FE
:100576000E94AA0534F40E94FA05F40131964F014F
:10058600F7CFA0919302B0919402139731F5882486
:100596009924E9E0F0E0E815F905FCF08298829AE2
:1005A6008398839A8498849A0E946B05E2E1F1E02D
:1005B6000E9493050E948905E1E2F1E00E94770519
:1005C600ADE7B0E00E943906E0E0E0939302E093E5
:1005D6009402F40131964F01DCCF61CFFFCFBA937D
:1005E600AA931A930A93AA81BB8112960E94500677
:1005F600309759F1AA81BB8114960E9450068F014B
:10060600309761F00230E0E01E0798F0F80131976C
:100616008F01AA81BB811496ED93FC93AA81BB81BD
:100626001296ED91FD913196FE93EE933197AC8142
:10063600A083AA81BB810E945006FF232AF0ED9178
:10064600FD913196FE93EE9306C0AA81BB81EFEF32
:10065600FFEFED93FC931981088125960895BA93CF
:10066600AA9326970E945D0610E0AC85BD85E0E062
:10067600F0E0ED93FC93EA89FB893196EA8BFB8BDC
:100686003197E4912E2FE03009F415C1E12FE030C7
:1006960039F4253211F411E002C00E94FF050AC1A7
:1006A600E130A9F4253219F40E94FF0502C112E0D7
:1006B60040E000E02D3211F401E0FCC02B3211F4D1
:1006C6004BE2F8C0203211F440E2F4C002C0E2303E
:1006D60039F450E013E0203311F40068EBC003C096
:1006E600E33009F0E7C0203310F02A3308F007C0E2
:1006F600AAE05A9F502DE22FE0535E0FDBC0E22F97
:10070600E33649F40E940606E889F989A481AA938A
:100716000E940C06CEC0E33741F40E9406060E94F2
:1007260012060E949A041E2F0AC0E03761F40E9446
:1007360006060E9412060E94A6041E2F086002608A
:100746000F7730E034C0E43611F0E93611F4046076
:1007560002C0E53731F4E4E5F0E0EE83FF8315E00F
:100766000CC0E83511F4086003C0E83709F0A1C0F1
:10077600EEE5F0E0EE83FF8314E002FF14C00E9472
:1007860006060E941C06AB85AA233AF4EA85FB8579
:100796000E944706EA87FB874DE2403011F01F5F53
:1007A60001C00B7F04C00E9406060E941C0600FDC5
:1007B60011C0151778F407FF08C002FF04C00B7FAD
:1007C600242F115001C020E301C020E20E94FF0542
:1007D6005150EFCF312F01FF17C03030A1F003FF8A
:1007E60006C0EE81FF812591EE83FF8305C0AE81B1
:1007F600BF812D91AE83BF830E94FF05503009F063
:1008060051503150EACF4BC020E3EE81FF810E9468
:100816005406E887F987EE81FF813296EE83FF83DF
:10082600E885F985AA85BB85AE17BF0750F02F5F0F
:10083600A885B985EA85FB85EA1BFB0BEA87FB875A
:10084600EFCF2A3328F003FF02C0295F01C0295DDC
:1008560004FD1AC0213320F4A885B985119709F43F
:1008660009C0531710F000FF01C013C020E207FFB4
:100876000BC020E3006102FF07C00B7F4A930E9472
:100886000C06503009F051500E94FF05503009F017
:1008960051503150A885B985129708F0B5CF00FFA1
:1008A60008C0503031F05150E0E2EA930E940C0645
:1008B600F8CF10E0E0CEAC85BD850E9450060E94C0
:1008C600640664960895FF92F82E26970E945F06A6
:1008D6000E942406309719F4EFEFFFEF23C0DE01E4
:1008E60016960E9443068D010E942406EE83FF831E
:1008F600E0E0E887E987DE011A960E9443060E9437
:100906005006FA93EA931A930A93E2EFF2E0FA9307
:10091600EA93DE011A96A3DE9F01AE81BF81E0E075
:10092600EC93F9010E9466062A96FF900895BA9301
:10093600AA93A991B991EE27FF276D91662311F02D
:100946003196FBCF0895BA93AA93AA27BB27E991BC
:10095600F9910590002011F01196FBCFFD01089545
:10096600AA93662777278991E991F991A991B99177
:10097600882349F08A956D917191671721F4662352
:10098600B9F7EE270895671BE1F3E1E008F4E250BA
:100996000895AA93EBB3EF70AE2FE881E07FEA2BC0
:1009A600EBBB8DE08A95F1F7DA9A8DE08A95F1F73F
:1009B600DA988DE08A95F1F780C0AA93A881E9DFDD
:1009C600E881E295E883A881E4DF85E88A95F1F776
:1009D60074C0AA93E881F0E0EB56FD4FE081A9814F
:1009E600AE0FEBDF4980E881E093990222960895E5
:1009F600A2E00E942B06ACE0E0DFA1E00E942B06FD
:100A0600E0E0E09399024E2E0895AA93A881AA30B9
:100A160021F0E0919A024E1660F0E0E0EA93A09190
:100A26009902AF5FA0939902D4DFA881AA3009F496
:100A360044C04394D89AA881C0DFD8983EC0BA93E0
:100A4600AA931A93A981BA81ED91A983BA831E2F1D
:100A5600E03019F0A12FD9DFF5CF1881239608953C
:100A6600AA93EAB3E06FEABBD29AD09AD19ADA98FF
:100A7600D898D998E881E0939A02E058E0939702D3
:100A8600E881E054E0939802A4E1B0E00E943906C0
:100A96000E9431060E9431060E943106A0E279DFEB
:100AA60088EC90E00197F1F7A8E287DFA4E085DF04
:100AB600A5E883DFA6E081DF9BDF21960895E8BBEA
:100AC600A1E0B0E00C943906A9E1B0E00C94390637
:100AD6000E94FB04E0E0EA93A0E00E94EC04E0E65A
:100AE600F2E0FA93EA930895FA93EA93E9E0F0E0E4
:100AF600E819F9090E944B060E94580684E00E94F4
:100B060066042896A0E6B2E00C942205E0E0EA939B
:100B1600A1E00E94EC04E0E6F2E0FA93EA9308957D
:100B2600FA93EA9380E00E9466042496A0E6B2E077
:100B36000C942205ADE7B0E00E943906E0E0E2BB86
:100B46000895E0E0E0939302E0939402C1CFE4E1DC
:100B5600F0E08E169F060895E0E1F0E06E167F063F
:100B66000895A0E0B0E00E94CE005E2EA2E3B0E0C1
:100B76000E943906EAE2E5150895F30131973F012F
:100B86006A92A1E00E94EC04A0E20C940805A0E79A
:100B9600B2E0A60DB71DE0E0EC9308956A92A1E0DD
:100BA6000E94EC04A52D0E940805F3010895E0E7D4
:100BB600F2E0FA93EA93E0E8F2E0FA93EA93A0E12E
:100BC6000E94B304F0E0E7FDFFEF5F010A2C0B285B
:100BD6000895A0E8B2E0A60DB71DE0E0EC930895F5
:100BE600ADE7B0E00E943906882499240895829AD8
:100BF6008298839A839868CF2A93AD85BE85EF85C0
:100C0600F88909950895E889F9893497E88BF98B6D
:100C16000895AD85BE85EF85F88909950895A8895B
:100C2600B98914960E945006EE83FF83AE81BF8178
:100C36000895A889B98914960E945006EA87FB8709
:100C46000895DE011C960E9443060E9450060895F0
:100C56000E94E004A3E0B0E00C943906A0E30E94F1
:100C6600CC0488EC90E00197F1F70895109639F0DE
:100C7600A89580ED97E00197F1F71197C9F70895C8
:100C86000024AF0DB01D0895F195E195F04008954B
:100C96006F2F660F660B762F0895ED91FC911197D5
:100CA60008950590F491E02D08957A936A93FA9346
:100CB600EA9308955A934A933A932A931A930A9376
:100CC60008955D814C813B812A81198108810895AF
:00000001FF
