:060000000C94A1000C9419
:1000060000000C9400000C9400000C9400000C946A
:1000160000000C9400000C9400000C9400000C945A
:1000260000000C9400000C9400000C9400000C944A
:1000360000000C9400000C9400000C9400000C943A
:1000460000000C9400000C9400000C940000102793
:10005600E80364000A00010000100001100001001E
:10006600313338324C6F636B2061667465722025BC
:100076006420736563005072657373202320746F68
:10008600206C6F636B004C6F636B656420210044CA
:100096006F6F72204F70656E6564210052657365DF
:1000A600742050617373204D6F6465004F6C64203B
:1000B60050617373776F72643A00436F727265634F
:1000C600742050617373776F72642100456E746596
:1000D60072204E6577205061737300506173737799
:1000E6006F7264204368616E6765640057726F6E55
:1000F600672050617373776F72642100456E746573
:10010600722050617373776F72643A0033205469BA
:100116006D65732057726F6E672100576169742091
:100126002564205365636F6E6473000080C004000D
:10013600800266000200950232010000F894EE2764
:10014600ECBBF1E0FBBFEBBFE5BF8DE0A2E0BB2758
:10015600ED938A95E9F780E098E0A0E6ED930197A4
:10016600E9F7E4E3F1E085919591009761F0A591B7
:10017600B59105901590BF01F00105900D9201977C
:10018600E1F7FB01F0CFEFE5EDBFE8E0EEBFC0E63B
:10019600D2E00C941E02BA93AA93E0E0E093910297
:1001A600E0939202EEEF0E944C05B49903C0E1E39E
:1001B6000C94E304B59903C0E2E30C94E304B69906
:1001C60003C0E3E30C94E304EDEF0E944C05B499FD
:1001D60003C0E4E30C94E304B59903C0E5E30C948F
:1001E600E304B69903C0E6E30C94E304EBEF0E9444
:1001F6004C05B49903C0E7E30C94E304B59903C036
:10020600E8E30C94E304B69903C0E9E30C94E30431
:10021600E7EF0E944C05B4991EC0E881F98130973A
:10022600B9F0B49915C0E0919102F091920231961D
:10023600E0939102F09392020E945105A0919102DF
:10024600B09192021A971CF0E2E70C94E304E9CF0E
:10025600EAE20C94E304B59903C0E0E30C94E304EA
:10026600B69903C0E3E20C94E3049CCF8824992456
:10027600E9E0F0E0E815F9054CF10E945505EAE6DB
:10028600F0E00E9461050E947305ECE7F0E00E9431
:100296007D05E7EFE8BB66247724CC24DD24E5E082
:1002A600F0E06E167F065CF4B69903C0E1E0F0E07C
:1002B6006F010E945105F30131963F01F0CF0C2CDE
:1002C6000D2821F4F40131964F01D2CFE1E0E2BBD3
:1002D600839A0E94870583980E945505ECE8F0E012
:1002E6000E947D05AAEFB0E00E94190608950E94BB
:1002F6005505E5E9F0E00E947D05E2E0E2BB829A61
:100306000E948705829808950E945505E2EAF0E06A
:100316000E947D05882499240E948E0544F4849ABF
:1003260084980E945105F40131964F01F5CF0E9441
:100336005505E2EBF0E00E947D05662477240E94D5
:100346009305BCF40E949805A1F0E3E2E51541F49B
:10035600062C072851F00E94A4050E94AE0505C090
:100366000E94B805E059FD4F5082F30131963F01D6
:10037600E6CF0E94C10509F04CC00E945505E0EC8D
:10038600F0E00E947D05A4EFB1E00E9419060E94EC
:100396005505E2EDF0E00E947D05662477240E9473
:1003A6009305F4F40E949805D9F0E3E2E51579F493
:1003B600062C072889F00E94A405A0E8B2E0A60D45
:1003C600B71DE0E0EC93F30131973F0105C00E94B1
:1003D600B805E058FD4F5082F30131963F01DFCF5B
:1003E600F301EF57FD4FA0E0A0830E945505E1EE13
:1003F600F0E00E947D05882499240E948E0544F42D
:10040600849A84980E945105F40131964F01F5CFE4
:1004160011C00E945505E2EFF0E00E947D050E94A2
:10042600D3050E948E0534F40E94DA05F401319654
:100436004F01F7CF0895EFEFEABBE0E0EBBBEFE04B
:10044600E7BBE0E0E8BBE4BBE5BBEFE1E1BBE0E036
:10045600E8BBE3BFE2BFECBFEFBDEEBDEDBDECBD5B
:10046600E7BDE6BDEBBDEABDE9BDE8BDE2BDE5BD64
:10047600E4BDE3BDE9BFE5BFE4BFEAB9E0E8E8B93A
:10048600E0E0E0BFE6B9EDB9E6BFA0E10E941D05D8
:100496000E945505E2E0F1E00E947D05662477247E
:1004A6000E94930594F5062C072811F4A1E001C0DB
:1004B600A0E0B0E070DE5E2EA2E3B0E00E94190676
:1004C600E2E7E51559F420DFEFEFFFEF3F010E9469
:1004D6005505E2E0F1E00E947D0513C0EAE2E5156C
:1004E600A1F0E3E2E51541F4062C072851F00E943D
:1004F600A4050E94AE0505C00E94B805E059FD4F4F
:100506005082F30131963F01CBCF0E94C10571F4B1
:10051600E0E0E0939302E09394020E945505E0EC3C
:10052600F0E00E947D05E3DEA1DE41C0E09193028A
:10053600F09194023196E0939302F09394020E9414
:100546005505E2EFF0E00E947D050E94D3050E946A
:100556008E0534F40E94DA05F40131964F01F7CF87
:10056600A0919302B0919402139709F588249924D7
:10057600E9E0F0E0E815F905D4F08298829A8398CC
:10058600839A8498849A0E945505E2E1F1E00E94DC
:100596007D050E947305E1E2F1E00E946105ADE789
:1005A600B0E00E941906F40131964F01E1CF70CFF9
:1005B600FFCFBA93AA931A930A93AA81BB81129684
:1005C6000E943006309759F1AA81BB8114960E9489
:1005D60030068F01309761F00230E0E01E0798F098
:1005E600F80131978F01AA81BB811496ED93FC9394
:1005F600AA81BB811296ED91FD913196FE93EE9301
:100606003197AC81A083AA81BB810E943006FF236B
:100616002AF0ED91FD913196FE93EE9306C0AA81E4
:10062600BB81EFEFFFEFED93FC93198108812596CF
:100636000895BA93AA9326970E943D0610E0AC85CA
:10064600BD85E0E0F0E0ED93FC93EA89FB89319605
:10065600EA8BFB8B3197E4912E2FE03009F415C11C
:10066600E12FE03039F4253211F411E002C00E9486
:10067600DF050AC1E130A9F4253219F40E94DF052D
:1006860002C112E040E000E02D3211F401E0FCC0AE
:100696002B3211F44BE2F8C0203211F440E2F4C0E0
:1006A60002C0E23039F450E013E0203311F4006860
:1006B600EBC003C0E33009F0E7C0203310F02A3363
:1006C60008F007C0AAE05A9F502DE22FE0535E0FB4
:1006D600DBC0E22FE33649F40E94E605E889F98992
:1006E600A481AA930E94EC05CEC0E33741F40E9490
:1006F600E6050E94F2050E9484041E2F0AC0E03718
:1007060061F40E94E6050E94F2050E9490041E2FE5
:10071600086002600F7730E034C0E43611F0E93645
:1007260011F4046002C0E53731F4E4E5F0E0EE834D
:10073600FF8315E00CC0E83511F4086003C0E83704
:1007460009F0A1C0EEE5F0E0EE83FF8314E002FFBE
:1007560014C00E94E6050E94FC05AB85AA233AF464
:10076600EA85FB850E942706EA87FB874DE2403033
:1007760011F01F5F01C00B7F04C00E94E6050E94B6
:10078600FC0500FD11C0151778F407FF08C002FF2D
:1007960004C00B7F242F115001C020E301C020E2CA
:1007A6000E94DF055150EFCF312F01FF17C03030C7
:1007B600A1F003FF06C0EE81FF812591EE83FF8342
:1007C60005C0AE81BF812D91AE83BF830E94DF0538
:1007D600503009F051503150EACF4BC020E3EE8142
:1007E600FF810E943406E887F987EE81FF81329601
:1007F600EE83FF83E885F985AA85BB85AE17BF071B
:1008060050F02F5FA885B985EA85FB85EA1BFB0BAF
:10081600EA87FB87EFCF2A3328F003FF02C0295F60
:1008260001C0295D04FD1AC0213320F4A885B985CD
:10083600119709F409C0531710F000FF01C013C047
:1008460020E207FF0BC020E3006102FF07C00B7F19
:100856004A930E94EC05503009F051500E94DF0582
:10086600503009F051503150A885B985129708F0DB
:10087600B5CF00FF08C0503031F05150E0E2EA93A6
:100886000E94EC05F8CF10E0E0CEAC85BD850E9455
:1008960030060E94440664960895FF92F82E269725
:1008A6000E943F060E940406309719F4EFEFFFEF0F
:1008B60023C0DE0116960E9423068D010E940406BF
:1008C600EE83FF83E0E0E887E987DE011A960E945F
:1008D60023060E943006FA93EA931A930A93ECEDE4
:1008E600F2E0FA93EA93DE011A96A3DE9F01AE8147
:1008F600BF81E0E0EC93F9010E9446062A96FF903C
:100906000895BA93AA93A991B991EE27FF276D91FD
:10091600662311F03196FBCF0895BA93AA93AA27BE
:10092600BB27E991F9910590002011F01196FBCFB4
:10093600FD010895AA93662777278991E991F99190
:10094600A991B991882349F08A956D91719167179C
:1009560021F46623B9F7EE270895671BE1F3E1E07A
:1009660008F4E2500895AA93EBB3EF70AE2FE88136
:10097600E07FEA2BEBBB8DE08A95F1F7DA9A8DE002
:100986008A95F1F7DA988DE08A95F1F780C0AA93F7
:10099600A881E9DFE881E295E883A881E4DF85E8BC
:1009A6008A95F1F774C0AA93E881F0E0EB56FD4F03
:1009B600E081A981AE0FEBDF4980E881E0939902DF
:1009C60022960895A2E00E940B06ACE0E0DFA1E0CB
:1009D6000E940B06E0E0E09399024E2E0895AA933A
:1009E600A881AA3021F0E0919A024E1660F0E0E06C
:1009F600EA93A0919902AF5FA0939902D4DFA881F0
:100A0600AA3009F444C04394D89AA881C0DFD89884
:100A16003EC0BA93AA931A93A981BA81ED91A9838C
:100A2600BA831E2FE03019F0A12FD9DFF5CF188138
:100A360023960895AA93EAB3E06FEABBD29AD09AB6
:100A4600D19ADA98D898D998E881E0939A02E05832
:100A5600E0939702E881E054E0939802A4E1B0E0C5
:100A66000E9419060E9411060E9411060E94110694
:100A7600A0E279DF88EC90E00197F1F7A8E287DF42
:100A8600A4E085DFA5E883DFA6E081DF9BDF219672
:100A96000895E8BBA1E0B0E00C941906A9E1B0E026
:100AA6000C9419060E94E504E0E0EA93A0E00E9497
:100AB600D604E0E6F2E0FA93EA930895FA93EA930D
:100AC600E9E0F0E0E819F9090E942B060E943806D1
:100AD60084E00E9450042896A0E6B2E00C940C052F
:100AE600E0E0EA93A1E00E94D604E0E6F2E0FA93A1
:100AF600EA930895FA93EA9380E00E9450042496BC
:100B0600A0E6B2E00C940C05ADE7B0E00E94190631
:100B1600E0E0E2BB0895E4E1F0E08E169F0608955A
:100B2600E0E1F0E06E167F060895A0E0B0E00E94D6
:100B3600CE005E2EA2E3B0E00E941906EAE2E515B9
:100B46000895F30131973F016A92A1E00E94D6040D
:100B5600A0E20C94F204A0E7B2E0A60DB71DE0E017
:100B6600EC93F30131973F0108956A92A1E00E9448
:100B7600D604A52D0E94F204F3010895E0E7F2E001
:100B8600FA93EA93E0E8F2E0FA93EA93A0E10E948E
:100B96009D04F0E0E7FDFFEF5F010A2C0B280895A6
:100BA600ADE7B0E00E941906882499240895829A38
:100BB6008298839A839872CF2A93AD85BE85EF85F6
:100BC600F88909950895E889F9893497E88BF98BAE
:100BD6000895AD85BE85EF85F88909950895A8899C
:100BE600B98914960E943006EE83FF83AE81BF81D9
:100BF6000895A889B98914960E943006EA87FB876A
:100C06000895DE011C960E9423060E943006089570
:100C16000E94CA04A3E0B0E00C941906A0E30E9467
:100C2600B60488EC90E00197F1F70895109639F034
:100C3600A89580ED97E00197F1F71197C9F7089508
:100C46000024AF0DB01D0895F195E195F04008958B
:100C56006F2F660F660B762F0895ED91FC91119715
:100C660008950590F491E02D08957A936A93FA9386
:100C7600EA9308955A934A933A932A931A930A93B6
:100C860008955D814C813B812A81198108810895EF
:00000001FF
